:0300000002027683
:0F027600787FE4F6D8FD75A00075810A0202C0FA
:10038C00EF1FAA0670011E4A60107C137D88ED1DBC
:0A039C00AA0470011C4A60E880F416
:0103A6002234
:1003A7001204141203C21203F71204237F647E009F
:0B03B70012038C12035012040C80F1A2
:1003DD00AD07AC06538EEF538EF7438E048CD6AF1C
:0A03ED00058FD753AFFB438E10229B
:08040C008F993099FDC299227D
:1003C200438E017FE07EFE1203DDE598543F4440F8
:0B03D200F598D29C53A23F43A24022AA
:07041400E4F5937594242226
:03042000D2852260
:03042300C285226D
:04041B0002080001D2
:1003F700759D06E4F5BDF5BE74024488F5BC7F140F
:050407007E0002038CE1
:10030500750A027F037E0012038C75BC00E50A4462
:1003150088F5BC7F037E0012038C53BCEFAFBD7E16
:1003250000EF7802C333CE33CED8F9FFFDAC06E437
:100335001201AEE4FBFA7980784412010CE4FBFA71
:0A03450079C878421200031201E7A4
:01034F00228B
:100350001203058E088F09D3E50994FFE508940080
:1003600040087508007509FF800CC3E5089400502B
:1003700005E4F508F509D3E5099400E50894004083
:0B038000051204208003120423AF09C3
:01038B00224F
:10000300EC4D6011E8497017ED33EC3304600DE4F7
:10001300FCFFFEFD22E933E8330470F802025312B9
:10002300021E58046009E4CC2481500628500902BA
:10003300025D28400302025AC0E0EB4A7044B980D3
:1000430006D0E0FB020249EF4E701CBD8008EBFFB7
:10005300EAFEE9FD80EBE98DF0A4FEE5F00200EC99
:10006300E9CDF9EAFEEBFFEF89F0A4FCE5F0CE89D8
:10007300F0A42EFFE435F0CD89F0A42DFEE435F095
:100083008067EF4E7005BD80D780C3EF8BF0A4ACC3
:10009300F0EE8BF0A42CFCE435F0F8EF8AF0A42CFE
:1000A300E5F038FCE433CB8DF0A42CFCE5F03BF811
:1000B300EE8AF0A42CFCE5F038F8E433CF89F0A401
:1000C3002CFCE5F038CF3400CE89F0A42FFFE5F007
:1000D3003EFEE433C98DF0A42EFEE5F039CD8AF05F
:1000E300A42FFFE5F03EFEE43DFD33D0E0FB5007D7
:1000F3000BBB000F02025DEC2CFCEF33FFEE33FE73
:06010300ED33FD020235A0
:1001090002025DEC5D046005E859047003020253C4
:1001190012021E580460F6EC4860F2EC7004FDFE11
:10012900FF22C860DB2481C85009C39860025006C9
:1001390002025A9850CAF582E9294B4A7005AB82E6
:1001490002024975F0007C1A7880C3EF9BEE9AEDA4
:1001590099400DC3EF9BFFEE9AFEED99FDE842F041
:10016900DC23ACF0D0E0FFD0E0FED0E0FDAB822094
:10017900E7101BEB60BAEC2CFCEF33FFEE33FEED1E
:1001890033FD020235E803F830E705C0F075F000E9
:10019900EF2FFFEE33FEED33FD40B830E7C280AA02
:1001A90075F020800E75F010800575F0087D007ED1
:1001B900007F003392D530D503120268EC3340102A
:1001C900EF33FFEE33FEED33FDEC33FCD5F0ED22DA
:0E01D900E5F0247EA2D513CC92E7CDCEFF2216
:1001E700EDD2E7CD33EC3392D524814006E4FFFE10
:1001F700FDFC22FCE4CFCECDCC24E0501174FF806F
:10020700EDC3CC13CCCD13CDCE13CECF13CF04700B
:07021700F030D5DE020268A1
:10021E00E9D2E7C933E833F892D5EDD2E7CD33EC26
:07022E0033FC5002B2D5229F
:10023500EC30E7100FBF000C0EBE00080DBD00042A
:100245000BEB6014A2D5EB13FCED92E7FD2274FFD6
:10025500FCFDFEFF22E480F8A2D574FF13FC7D802F
:03026500E480EF43
:100285000203A7E493A3F8E493A34003F68001F2E5
:1002950008DFF48029E493A3F85407240CC8C3337A
:1002A500C4540F4420C8834004F456800146F6DF49
:1002B500E4800B010204081020408090041BE47EBA
:1002C500019360BCA3FF543F30E509541FFEE4933E
:1002D500A360010ECF54C025E060A840B8E493A305
:1002E500FAE493A3F8E493A3C8C582C8CAC583CA30
:1002F500F0A3C8C582C8CAC583CADFE9DEE780BEE8
:01041F0000DC
:0E026800C3E49FFFE49EFEE49DFDE49CFC22A7
:00000001FF
